{
  "contractName": "DevToken",
  "abi": [
    {
      "inputs": [
        {
          "internalType": "string",
          "name": "token_name",
          "type": "string"
        },
        {
          "internalType": "string",
          "name": "short_symbol",
          "type": "string"
        },
        {
          "internalType": "uint8",
          "name": "token_decimals",
          "type": "uint8"
        },
        {
          "internalType": "uint256",
          "name": "token_totalSupply",
          "type": "uint256"
        }
      ],
      "stateMutability": "nonpayable",
      "type": "constructor"
    },
    {
      "anonymous": false,
      "inputs": [
        {
          "indexed": true,
          "internalType": "address",
          "name": "from",
          "type": "address"
        },
        {
          "indexed": true,
          "internalType": "address",
          "name": "to",
          "type": "address"
        },
        {
          "indexed": false,
          "internalType": "uint256",
          "name": "value",
          "type": "uint256"
        }
      ],
      "name": "Transfer",
      "type": "event"
    },
    {
      "inputs": [],
      "name": "decimals",
      "outputs": [
        {
          "internalType": "uint8",
          "name": "",
          "type": "uint8"
        }
      ],
      "stateMutability": "view",
      "type": "function",
      "constant": true
    },
    {
      "inputs": [],
      "name": "symbol",
      "outputs": [
        {
          "internalType": "string",
          "name": "",
          "type": "string"
        }
      ],
      "stateMutability": "view",
      "type": "function",
      "constant": true
    },
    {
      "inputs": [],
      "name": "name",
      "outputs": [
        {
          "internalType": "string",
          "name": "",
          "type": "string"
        }
      ],
      "stateMutability": "view",
      "type": "function",
      "constant": true
    },
    {
      "inputs": [],
      "name": "totalSupply",
      "outputs": [
        {
          "internalType": "uint256",
          "name": "",
          "type": "uint256"
        }
      ],
      "stateMutability": "view",
      "type": "function",
      "constant": true
    },
    {
      "inputs": [
        {
          "internalType": "address",
          "name": "account",
          "type": "address"
        }
      ],
      "name": "balanceOf",
      "outputs": [
        {
          "internalType": "uint256",
          "name": "",
          "type": "uint256"
        }
      ],
      "stateMutability": "view",
      "type": "function",
      "constant": true
    },
    {
      "inputs": [
        {
          "internalType": "address",
          "name": "account",
          "type": "address"
        },
        {
          "internalType": "uint256",
          "name": "amount",
          "type": "uint256"
        }
      ],
      "name": "mint",
      "outputs": [],
      "stateMutability": "nonpayable",
      "type": "function"
    },
    {
      "inputs": [
        {
          "internalType": "address",
          "name": "account",
          "type": "address"
        },
        {
          "internalType": "uint256",
          "name": "amount",
          "type": "uint256"
        }
      ],
      "name": "burn",
      "outputs": [],
      "stateMutability": "nonpayable",
      "type": "function"
    }
  ],
  "bytecode": "0x60806040523480156200001157600080fd5b50604051620010b0380380620010b0833981810160405281019062000037919062000295565b83600390805190602001906200004f92919062000145565b5082600290805190602001906200006892919062000145565b5081600160006101000a81548160ff021916908360ff16021790555080600081905550600054600460003373ffffffffffffffffffffffffffffffffffffffff1673ffffffffffffffffffffffffffffffffffffffff168152602001908152602001600020819055503373ffffffffffffffffffffffffffffffffffffffff16600073ffffffffffffffffffffffffffffffffffffffff167fddf252ad1be2c89b69c2b068fc378daa952ba7f163c4a11628f55a4df523b3ef60005460405162000133919062000344565b60405180910390a3505050506200051c565b82805462000153906200040d565b90600052602060002090601f016020900481019282620001775760008555620001c3565b82601f106200019257805160ff1916838001178555620001c3565b82800160010185558215620001c3579182015b82811115620001c2578251825591602001919060010190620001a5565b5b509050620001d29190620001d6565b5090565b5b80821115620001f1576000816000905550600101620001d7565b5090565b60006200020c62000206846200038a565b62000361565b9050828152602081018484840111156200022557600080fd5b62000232848285620003d7565b509392505050565b600082601f8301126200024c57600080fd5b81516200025e848260208601620001f5565b91505092915050565b6000815190506200027881620004e8565b92915050565b6000815190506200028f8162000502565b92915050565b60008060008060808587031215620002ac57600080fd5b600085015167ffffffffffffffff811115620002c757600080fd5b620002d5878288016200023a565b945050602085015167ffffffffffffffff811115620002f357600080fd5b62000301878288016200023a565b935050604062000314878288016200027e565b9250506060620003278782880162000267565b91505092959194509250565b6200033e81620003c0565b82525050565b60006020820190506200035b600083018462000333565b92915050565b60006200036d62000380565b90506200037b828262000443565b919050565b6000604051905090565b600067ffffffffffffffff821115620003a857620003a7620004a8565b5b620003b382620004d7565b9050602081019050919050565b6000819050919050565b600060ff82169050919050565b60005b83811015620003f7578082015181840152602081019050620003da565b8381111562000407576000848401525b50505050565b600060028204905060018216806200042657607f821691505b602082108114156200043d576200043c62000479565b5b50919050565b6200044e82620004d7565b810181811067ffffffffffffffff8211171562000470576200046f620004a8565b5b80604052505050565b7f4e487b7100000000000000000000000000000000000000000000000000000000600052602260045260246000fd5b7f4e487b7100000000000000000000000000000000000000000000000000000000600052604160045260246000fd5b6000601f19601f8301169050919050565b620004f381620003c0565b8114620004ff57600080fd5b50565b6200050d81620003ca565b81146200051957600080fd5b50565b610b84806200052c6000396000f3fe608060405234801561001057600080fd5b506004361061007d5760003560e01c806340c10f191161005b57806340c10f19146100dc57806370a08231146100f857806395d89b41146101285780639dc29fac146101465761007d565b806306fdde031461008257806318160ddd146100a0578063313ce567146100be575b600080fd5b61008a610162565b60405161009791906107b8565b60405180910390f35b6100a86101f4565b6040516100b5919061083a565b60405180910390f35b6100c66101fd565b6040516100d39190610855565b60405180910390f35b6100f660048036038101906100f191906106bc565b610214565b005b610112600480360381019061010d9190610693565b610390565b60405161011f919061083a565b60405180910390f35b6101306103d9565b60405161013d91906107b8565b60405180910390f35b610160600480360381019061015b91906106bc565b61046b565b005b60606003805461017190610992565b80601f016020809104026020016040519081016040528092919081815260200182805461019d90610992565b80156101ea5780601f106101bf576101008083540402835291602001916101ea565b820191906000526020600020905b8154815290600101906020018083116101cd57829003601f168201915b5050505050905090565b60008054905090565b6000600160009054906101000a900460ff16905090565b600073ffffffffffffffffffffffffffffffffffffffff168273ffffffffffffffffffffffffffffffffffffffff161415610284576040517f08c379a000000000000000000000000000000000000000000000000000000000815260040161027b906107da565b60405180910390fd5b80600054610292919061088c565b60008190555080600460008473ffffffffffffffffffffffffffffffffffffffff1673ffffffffffffffffffffffffffffffffffffffff168152602001908152602001600020546102e3919061088c565b600460008473ffffffffffffffffffffffffffffffffffffffff1673ffffffffffffffffffffffffffffffffffffffff168152602001908152602001600020819055508173ffffffffffffffffffffffffffffffffffffffff16600073ffffffffffffffffffffffffffffffffffffffff167fddf252ad1be2c89b69c2b068fc378daa952ba7f163c4a11628f55a4df523b3ef83604051610384919061083a565b60405180910390a35050565b6000600460008373ffffffffffffffffffffffffffffffffffffffff1673ffffffffffffffffffffffffffffffffffffffff168152602001908152602001600020549050919050565b6060600280546103e890610992565b80601f016020809104026020016040519081016040528092919081815260200182805461041490610992565b80156104615780601f1061043657610100808354040283529160200191610461565b820191906000526020600020905b81548152906001019060200180831161044457829003601f168201915b5050505050905090565b600073ffffffffffffffffffffffffffffffffffffffff168273ffffffffffffffffffffffffffffffffffffffff1614156104db576040517f08c379a00000000000000000000000000000000000000000000000000000000081526004016104d2906107fa565b60405180910390fd5b80600460008473ffffffffffffffffffffffffffffffffffffffff1673ffffffffffffffffffffffffffffffffffffffff16815260200190815260200160002054101561055d576040517f08c379a00000000000000000000000000000000000000000000000000000000081526004016105549061081a565b60405180910390fd5b80600460008473ffffffffffffffffffffffffffffffffffffffff1673ffffffffffffffffffffffffffffffffffffffff168152602001908152602001600020546105a891906108e2565b600460008473ffffffffffffffffffffffffffffffffffffffff1673ffffffffffffffffffffffffffffffffffffffff16815260200190815260200160002081905550806000546105f991906108e2565b600081905550600073ffffffffffffffffffffffffffffffffffffffff168273ffffffffffffffffffffffffffffffffffffffff167fddf252ad1be2c89b69c2b068fc378daa952ba7f163c4a11628f55a4df523b3ef8360405161065d919061083a565b60405180910390a35050565b60008135905061067881610b20565b92915050565b60008135905061068d81610b37565b92915050565b6000602082840312156106a557600080fd5b60006106b384828501610669565b91505092915050565b600080604083850312156106cf57600080fd5b60006106dd85828601610669565b92505060206106ee8582860161067e565b9150509250929050565b600061070382610870565b61070d818561087b565b935061071d81856020860161095f565b61072681610a22565b840191505092915050565b600061073e60258361087b565b915061074982610a33565b604082019050919050565b600061076160278361087b565b915061076c82610a82565b604082019050919050565b600061078460308361087b565b915061078f82610ad1565b604082019050919050565b6107a381610948565b82525050565b6107b281610952565b82525050565b600060208201905081810360008301526107d281846106f8565b905092915050565b600060208201905081810360008301526107f381610731565b9050919050565b6000602082019050818103600083015261081381610754565b9050919050565b6000602082019050818103600083015261083381610777565b9050919050565b600060208201905061084f600083018461079a565b92915050565b600060208201905061086a60008301846107a9565b92915050565b600081519050919050565b600082825260208201905092915050565b600061089782610948565b91506108a283610948565b9250827fffffffffffffffffffffffffffffffffffffffffffffffffffffffffffffffff038211156108d7576108d66109c4565b5b828201905092915050565b60006108ed82610948565b91506108f883610948565b92508282101561090b5761090a6109c4565b5b828203905092915050565b600061092182610928565b9050919050565b600073ffffffffffffffffffffffffffffffffffffffff82169050919050565b6000819050919050565b600060ff82169050919050565b60005b8381101561097d578082015181840152602081019050610962565b8381111561098c576000848401525b50505050565b600060028204905060018216806109aa57607f821691505b602082108114156109be576109bd6109f3565b5b50919050565b7f4e487b7100000000000000000000000000000000000000000000000000000000600052601160045260246000fd5b7f4e487b7100000000000000000000000000000000000000000000000000000000600052602260045260246000fd5b6000601f19601f8301169050919050565b7f446576546f6b656e3a2063616e6e6f74206d696e7420746f207a65726f20616460008201527f6472657373000000000000000000000000000000000000000000000000000000602082015250565b7f446576546f6b656e3a2063616e6e6f74206275726e2066726f6d207a65726f2060008201527f6164647265737300000000000000000000000000000000000000000000000000602082015250565b7f446576546f6b656e3a2043616e6e6f74206275726e206d6f7265207468616e2060008201527f746865206163636f756e74206f776e7300000000000000000000000000000000602082015250565b610b2981610916565b8114610b3457600080fd5b50565b610b4081610948565b8114610b4b57600080fd5b5056fea2646970667358221220bb084ae5fbe25069f9a391e3822bcd2fef2e4c0e560722246501512f0b1cf05e64736f6c63430008040033",
  "immutableReferences": {},
  "source": "// SPDX-License-Identifier: MIT\npragma solidity ^0.8.4;\n\n/**\n* @notice DevToken is a development token that we use to learn how to code solidity \n* and what BEP-20 interface requires\n*/\ncontract DevToken {\n  \n\n  /**\n  * @notice Our Tokens required variables that are needed to operate everything\n  */\n  uint private _totalSupply;\n  uint8 private _decimals;\n  string private _symbol;\n  string private _name;\n\n  /**\n  * @notice _balances is a mapping that contains a address as KEY \n  * and the balance of the address as the value\n  */\n  mapping (address => uint256) private _balances;\n\n  /**\n  * @notice Events are created below.\n  * Transfer event is a event that notify the blockchain that a transfer of assets has taken place\n  *\n  */\n  event Transfer(address indexed from, address indexed to, uint256 value);\n\n  /**\n  * @notice constructor will be triggered when we create the Smart contract\n  * _name = name of the token\n  * _short_symbol = Short Symbol name for the token\n  * token_decimals = The decimal precision of the Token, defaults 18\n  * _totalSupply is how much Tokens there are totally \n  */\n  constructor(string memory token_name, string memory short_symbol, uint8 token_decimals, uint256 token_totalSupply){\n      _name = token_name;\n      _symbol = short_symbol;\n      _decimals = token_decimals;\n      _totalSupply = token_totalSupply;\n\n      // Add all the tokens created to the creator of the token\n      _balances[msg.sender] = _totalSupply;\n\n      // Emit an Transfer event to notify the blockchain that an Transfer has occured\n      emit Transfer(address(0), msg.sender, _totalSupply);\n  }\n\n   /**\n  * @notice decimals will return the number of decimal precision the Token is deployed with\n  */\n  function decimals() external view returns (uint8) {\n    return _decimals;\n  }\n  /**\n  * @notice symbol will return the Token's symbol \n  */\n  function symbol() external view returns (string memory){\n    return _symbol;\n  }\n  /**\n  * @notice name will return the Token's symbol \n  */\n  function name() external view returns (string memory){\n    return _name;\n  }\n  /**\n  * @notice totalSupply will return the tokens total supply of tokens\n  */\n  function totalSupply() external view returns (uint256){\n    return _totalSupply;\n  }\n\n    /**\n  * @notice balanceOf will return the account balance for the given account\n  */\n  function balanceOf(address account) external view returns (uint256) {\n    return _balances[account];\n  } \n \n /**\n  * @notice mint will create tokens on the address inputted and then increase the total supply\n  *\n  * It will also emit an Transfer event, with sender set to zero address (adress(0))\n  * \n  * Requires that the address that is recieveing the tokens is not zero address\n  */\n  function mint(address account, uint256 amount) public {\n    require(account != address(0), \"DevToken: cannot mint to zero address\");\n\n    // Increase total supply\n    _totalSupply = _totalSupply + (amount);\n    // Add amount to the account balance using the balance mapping\n    _balances[account] = _balances[account] + amount;\n    // Emit our event to log the action\n    emit Transfer(address(0), account, amount);\n  }\n  /**\n  * @notice burn will destroy tokens from an address inputted and then decrease total supply\n  * An Transfer event will emit with receiever set to zero address\n  * \n  * Requires \n  * - Account cannot be zero\n  * - Account balance has to be bigger or equal to amount\n  */\n  function burn(address account, uint256 amount) public {\n    require(account != address(0), \"DevToken: cannot burn from zero address\");\n    require(_balances[account] >= amount, \"DevToken: Cannot burn more than the account owns\");\n\n    // Remove the amount from the account balance\n    _balances[account] = _balances[account] - amount;\n    // Decrease totalSupply\n    _totalSupply = _totalSupply - amount;\n    // Emit event, use zero address as reciever\n    emit Transfer(account, address(0), amount);\n  }\n  \n\n}",
  "sourcePath": "C:\\PhucTT\\Source Code\\dev-token\\contracts\\DevToken.sol",
  "compiler": {
    "name": "solc",
    "version": "0.8.4+commit.c7e474f2.Emscripten.clang"
  },
  "schemaVersion": "3.4.7",
  "updatedAt": "2022-06-14T07:51:31.178Z",
  "networkType": "ethereum",
  "devdoc": {
    "kind": "dev",
    "methods": {},
    "version": 1
  },
  "userdoc": {
    "events": {
      "Transfer(address,address,uint256)": {
        "notice": "Events are created below. Transfer event is a event that notify the blockchain that a transfer of assets has taken place"
      }
    },
    "kind": "user",
    "methods": {
      "balanceOf(address)": {
        "notice": "balanceOf will return the account balance for the given account"
      },
      "burn(address,uint256)": {
        "notice": "burn will destroy tokens from an address inputted and then decrease total supply An Transfer event will emit with receiever set to zero address  Requires  - Account cannot be zero - Account balance has to be bigger or equal to amount"
      },
      "constructor": {
        "notice": "constructor will be triggered when we create the Smart contract _name = name of the token _short_symbol = Short Symbol name for the token token_decimals = The decimal precision of the Token, defaults 18 _totalSupply is how much Tokens there are totally "
      },
      "decimals()": {
        "notice": "decimals will return the number of decimal precision the Token is deployed with"
      },
      "mint(address,uint256)": {
        "notice": "mint will create tokens on the address inputted and then increase the total supply It will also emit an Transfer event, with sender set to zero address (adress(0))  Requires that the address that is recieveing the tokens is not zero address"
      },
      "name()": {
        "notice": "name will return the Token's symbol "
      },
      "symbol()": {
        "notice": "symbol will return the Token's symbol "
      },
      "totalSupply()": {
        "notice": "totalSupply will return the tokens total supply of tokens"
      }
    },
    "notice": "DevToken is a development token that we use to learn how to code solidity  and what BEP-20 interface requires",
    "version": 1
  }
}