{
  "contractName": "TruffleTutorial",
  "abi": [
    {
      "inputs": [],
      "stateMutability": "nonpayable",
      "type": "constructor"
    },
    {
      "inputs": [],
      "name": "message",
      "outputs": [
        {
          "internalType": "string",
          "name": "",
          "type": "string"
        }
      ],
      "stateMutability": "view",
      "type": "function"
    },
    {
      "inputs": [],
      "name": "owner",
      "outputs": [
        {
          "internalType": "address",
          "name": "",
          "type": "address"
        }
      ],
      "stateMutability": "view",
      "type": "function"
    },
    {
      "inputs": [
        {
          "internalType": "string",
          "name": "_message",
          "type": "string"
        }
      ],
      "name": "setMessage",
      "outputs": [
        {
          "internalType": "string",
          "name": "",
          "type": "string"
        }
      ],
      "stateMutability": "nonpayable",
      "type": "function"
    }
  ],
  "bytecode": "0x6080604052336000806101000a81548173ffffffffffffffffffffffffffffffffffffffff021916908373ffffffffffffffffffffffffffffffffffffffff16021790555034801561005057600080fd5b506040518060400160405280600c81526020017f48656c6c6f20576f726c642100000000000000000000000000000000000000008152506001908051906020019061009c9291906100a2565b506101a6565b8280546100ae90610145565b90600052602060002090601f0160209004810192826100d05760008555610117565b82601f106100e957805160ff1916838001178555610117565b82800160010185558215610117579182015b828111156101165782518255916020019190600101906100fb565b5b5090506101249190610128565b5090565b5b80821115610141576000816000905550600101610129565b5090565b6000600282049050600182168061015d57607f821691505b6020821081141561017157610170610177565b5b50919050565b7f4e487b7100000000000000000000000000000000000000000000000000000000600052602260045260246000fd5b6106fc806101b56000396000f3fe608060405234801561001057600080fd5b50600436106100415760003560e01c8063368b8772146100465780638da5cb5b14610076578063e21f37ce14610094575b600080fd5b610060600480360381019061005b91906103b6565b6100b2565b60405161006d919061047d565b60405180910390f35b61007e6101f9565b60405161008b9190610462565b60405180910390f35b61009c61021d565b6040516100a9919061047d565b60405180910390f35b606060008054906101000a900473ffffffffffffffffffffffffffffffffffffffff1673ffffffffffffffffffffffffffffffffffffffff163373ffffffffffffffffffffffffffffffffffffffff1614610142576040517f08c379a00000000000000000000000000000000000000000000000000000000081526004016101399061049f565b60405180910390fd5b600082511161015057600080fd5b81600190805190602001906101669291906102ab565b5060018054610174906105a5565b80601f01602080910402602001604051908101604052809291908181526020018280546101a0906105a5565b80156101ed5780601f106101c2576101008083540402835291602001916101ed565b820191906000526020600020905b8154815290600101906020018083116101d057829003601f168201915b50505050509050919050565b60008054906101000a900473ffffffffffffffffffffffffffffffffffffffff1681565b6001805461022a906105a5565b80601f0160208091040260200160405190810160405280929190818152602001828054610256906105a5565b80156102a35780601f10610278576101008083540402835291602001916102a3565b820191906000526020600020905b81548152906001019060200180831161028657829003601f168201915b505050505081565b8280546102b7906105a5565b90600052602060002090601f0160209004810192826102d95760008555610320565b82601f106102f257805160ff1916838001178555610320565b82800160010185558215610320579182015b8281111561031f578251825591602001919060010190610304565b5b50905061032d9190610331565b5090565b5b8082111561034a576000816000905550600101610332565b5090565b600061036161035c846104e4565b6104bf565b90508281526020810184848401111561037957600080fd5b610384848285610563565b509392505050565b600082601f83011261039d57600080fd5b81356103ad84826020860161034e565b91505092915050565b6000602082840312156103c857600080fd5b600082013567ffffffffffffffff8111156103e257600080fd5b6103ee8482850161038c565b91505092915050565b61040081610531565b82525050565b600061041182610515565b61041b8185610520565b935061042b818560208601610572565b61043481610666565b840191505092915050565b600061044c603383610520565b915061045782610677565b604082019050919050565b600060208201905061047760008301846103f7565b92915050565b600060208201905081810360008301526104978184610406565b905092915050565b600060208201905081810360008301526104b88161043f565b9050919050565b60006104c96104da565b90506104d582826105d7565b919050565b6000604051905090565b600067ffffffffffffffff8211156104ff576104fe610637565b5b61050882610666565b9050602081019050919050565b600081519050919050565b600082825260208201905092915050565b600061053c82610543565b9050919050565b600073ffffffffffffffffffffffffffffffffffffffff82169050919050565b82818337600083830152505050565b60005b83811015610590578082015181840152602081019050610575565b8381111561059f576000848401525b50505050565b600060028204905060018216806105bd57607f821691505b602082108114156105d1576105d0610608565b5b50919050565b6105e082610666565b810181811067ffffffffffffffff821117156105ff576105fe610637565b5b80604052505050565b7f4e487b7100000000000000000000000000000000000000000000000000000000600052602260045260246000fd5b7f4e487b7100000000000000000000000000000000000000000000000000000000600052604160045260246000fd5b6000601f19601f8301169050919050565b7f546869732066756e6374696f6e206973207265737472696374656420746f207460008201527f686520636f6e74726163742773206f776e65720000000000000000000000000060208201525056fea26469706673582212208d00789ca94843bb7fc76820319ebeb18209f4e1e478dd39463730a3e9c67f9364736f6c63430008040033",
  "immutableReferences": {},
  "source": "pragma solidity >=0.4.22 <0.9.0;\r\n\r\ncontract TruffleTutorial {\r\n  address public owner = msg.sender;\r\n  string public message;\r\n\r\n  // this function runs when the contract is deployed\r\n  constructor() public {\r\n    // set initial message\r\n    message = \"Hello World!\";\r\n  }\r\n\r\n  modifier ownerOnly() {\r\n    require(\r\n      msg.sender == owner,\r\n      \"This function is restricted to the contract's owner\"\r\n    );\r\n    _;\r\n  }\r\n\r\n  // function that only contract owner can run, to set a new message\r\n  function setMessage(string memory _message) \r\n    public \r\n    ownerOnly \r\n    returns(string memory) \r\n  {\r\n    // message must not be empty\r\n    require(bytes(_message).length > 0);\r\n\r\n    // set new message\r\n    message = _message;\r\n    return message;\r\n  }\r\n}",
  "sourcePath": "C:\\PhucTT\\Source Code\\dev-token\\contracts\\TruffleTutorial.sol",
  "compiler": {
    "name": "solc",
    "version": "0.8.4+commit.c7e474f2.Emscripten.clang"
  },
  "schemaVersion": "3.4.7",
  "updatedAt": "2022-06-14T07:37:54.374Z",
  "devdoc": {
    "kind": "dev",
    "methods": {},
    "version": 1
  },
  "userdoc": {
    "kind": "user",
    "methods": {},
    "version": 1
  }
}